{
  "contractName": "Consorcio",
  "abi": [
    {
      "constant": false,
      "inputs": [
        {
          "name": "_positivo",
          "type": "bool"
        }
      ],
      "name": "votar",
      "outputs": [],
      "payable": false,
      "stateMutability": "nonpayable",
      "type": "function"
    },
    {
      "constant": false,
      "inputs": [
        {
          "name": "_titulo",
          "type": "string"
        }
      ],
      "name": "proponer",
      "outputs": [],
      "payable": false,
      "stateMutability": "nonpayable",
      "type": "function"
    },
    {
      "constant": true,
      "inputs": [],
      "name": "soySocio",
      "outputs": [
        {
          "name": "",
          "type": "bool"
        }
      ],
      "payable": false,
      "stateMutability": "view",
      "type": "function"
    },
    {
      "inputs": [],
      "payable": false,
      "stateMutability": "nonpayable",
      "type": "constructor"
    },
    {
      "anonymous": false,
      "inputs": [
        {
          "indexed": false,
          "name": "titulo",
          "type": "string"
        },
        {
          "indexed": false,
          "name": "resultado",
          "type": "bool"
        }
      ],
      "name": "PropuestaTerminada",
      "type": "event"
    }
  ],
  "bytecode": "0x6060604052341561000f57600080fd5b60016000803373ffffffffffffffffffffffffffffffffffffffff1673ffffffffffffffffffffffffffffffffffffffff16815260200190815260200160002060006101000a81548160ff021916908315150217905550600180819055506105ff8061007c6000396000f300606060405260043610610057576000357c0100000000000000000000000000000000000000000000000000000000900463ffffffff1680636e16a3731461005c578063a829796214610081578063cfcd9d8b146100de575b600080fd5b341561006757600080fd5b61007f6004808035151590602001909190505061010b565b005b341561008c57600080fd5b6100dc600480803590602001908201803590602001908080601f01602080910402602001604051908101604052809392919081815260200183838082843782019150505050505091905050610256565b005b34156100e957600080fd5b6100f1610359565b604051808215151515815260200191505060405180910390f35b6000803373ffffffffffffffffffffffffffffffffffffffff1673ffffffffffffffffffffffffffffffffffffffff16815260200190815260200160002060009054906101000a900460ff16151561016257600080fd5b6002800160003373ffffffffffffffffffffffffffffffffffffffff1673ffffffffffffffffffffffffffffffffffffffff16815260200190815260200160002060009054906101000a900460ff161515156101bd57600080fd5b60016002800160003373ffffffffffffffffffffffffffffffffffffffff1673ffffffffffffffffffffffffffffffffffffffff16815260200190815260200160002060006101000a81548160ff021916908315150217905550801561023657600160026003016000828254019250508190555061024b565b60016002600401600082825401925050819055505b6102536103ac565b50565b6000803373ffffffffffffffffffffffffffffffffffffffff1673ffffffffffffffffffffffffffffffffffffffff16815260200190815260200160002060009054906101000a900460ff1615156102ad57600080fd5b6000600260000160009054906101000a900473ffffffffffffffffffffffffffffffffffffffff1673ffffffffffffffffffffffffffffffffffffffff16141515156102f857600080fd5b33600260000160006101000a81548173ffffffffffffffffffffffffffffffffffffffff021916908373ffffffffffffffffffffffffffffffffffffffff16021790555080600260010190805190602001906103559291906104e6565b5050565b60008060003373ffffffffffffffffffffffffffffffffffffffff1673ffffffffffffffffffffffffffffffffffffffff16815260200190815260200160002060009054906101000a900460ff16905090565b6001546002600401546002600301540114156104e4577f9aa49bdec0f0f9b70a00d569319806729eba71a65069bbf611aebd0994f05b076002600101600260040154600260030154116040518080602001831515151581526020018281038252848181546001816001161561010002031660029004815260200191508054600181600116156101000203166002900480156104885780601f1061045d57610100808354040283529160200191610488565b820191906000526020600020905b81548152906001019060200180831161046b57829003601f168201915b5050935050505060405180910390a16002600080820160006101000a81549073ffffffffffffffffffffffffffffffffffffffff02191690556001820160006104d19190610566565b6003820160009055600482016000905550505b565b828054600181600116156101000203166002900490600052602060002090601f016020900481019282601f1061052757805160ff1916838001178555610555565b82800160010185558215610555579182015b82811115610554578251825591602001919060010190610539565b5b50905061056291906105ae565b5090565b50805460018160011615610100020316600290046000825580601f1061058c57506105ab565b601f0160209004906000526020600020908101906105aa91906105ae565b5b50565b6105d091905b808211156105cc5760008160009055506001016105b4565b5090565b905600a165627a7a72305820fd0294a8b7a5a1464b7bfe7d924f8fc40156a8804d1b1d329574f833b62162080029",
  "source": "pragma solidity ^0.4.18;\n\ncontract Consorcio {\n  event PropuestaTerminada(string titulo, bool resultado);\n\n  struct Propuesta {\n    address creador;\n    string titulo;\n    mapping (address => bool) votos;\n    uint positivos;\n    uint negativos;\n  }\n\n  mapping (address => bool) socios;\n  uint numeroSocios;\n  Propuesta actual;\n\n  modifier soloSocios() {\n    require(socios[msg.sender]);\n    _;\n  }\n\n  function Consorcio() public {\n    socios[msg.sender] = true;\n    numeroSocios = 1;\n  }\n\n  function soySocio() public constant returns (bool) {\n    return socios[msg.sender];\n  }\n\n  function proponer(string _titulo) public soloSocios {\n    require(actual.creador != 0x0);\n\n    actual.creador = msg.sender;\n    actual.titulo = _titulo;\n  }\n\n  function votar(bool _positivo) public soloSocios {\n    require(!actual.votos[msg.sender]);\n\n    actual.votos[msg.sender] = true;\n    if(_positivo) actual.positivos += 1;\n    else actual.negativos += 1;\n\n    revisarTermino();\n  }\n\n  function revisarTermino() private {\n    if(actual.positivos + actual.negativos == numeroSocios) {\n      PropuestaTerminada(actual.titulo, actual.positivos > actual.negativos);\n      delete actual;\n    }\n  }\n}\n",
  "sourcePath": "/Users/ignacio/Desktop/ejemplo-iic0006/contracts/Consorcio.sol",
  "compiler": {
    "name": "solc",
    "version": "0.4.18+commit.9cf6e910.Emscripten.clang"
  },
  "schemaVersion": "1.0.1",
  "updatedAt": "2018-05-14T20:54:10.651Z"
}